{
  "_format": "hh-sol-artifact-1",
  "contractName": "MilestoneEscrow",
  "sourceName": "contracts/MilestoneEscrow.sol",
  "abi": [
    {
      "inputs": [
        {
          "internalType": "address",
          "name": "_student",
          "type": "address"
        },
        {
          "internalType": "address",
          "name": "_university",
          "type": "address"
        },
        {
          "internalType": "uint256[]",
          "name": "_amounts",
          "type": "uint256[]"
        }
      ],
      "stateMutability": "payable",
      "type": "constructor"
    },
    {
      "inputs": [
        {
          "internalType": "uint256",
          "name": "index",
          "type": "uint256"
        }
      ],
      "name": "approveMilestone",
      "outputs": [],
      "stateMutability": "nonpayable",
      "type": "function"
    },
    {
      "inputs": [],
      "name": "company",
      "outputs": [
        {
          "internalType": "address",
          "name": "",
          "type": "address"
        }
      ],
      "stateMutability": "view",
      "type": "function"
    },
    {
      "inputs": [],
      "name": "getBalance",
      "outputs": [
        {
          "internalType": "uint256",
          "name": "",
          "type": "uint256"
        }
      ],
      "stateMutability": "view",
      "type": "function"
    },
    {
      "inputs": [],
      "name": "getMilestones",
      "outputs": [
        {
          "components": [
            {
              "internalType": "uint256",
              "name": "amount",
              "type": "uint256"
            },
            {
              "internalType": "bool",
              "name": "released",
              "type": "bool"
            }
          ],
          "internalType": "struct MilestoneEscrow.Milestone[]",
          "name": "",
          "type": "tuple[]"
        }
      ],
      "stateMutability": "view",
      "type": "function"
    },
    {
      "inputs": [
        {
          "internalType": "uint256",
          "name": "",
          "type": "uint256"
        }
      ],
      "name": "milestones",
      "outputs": [
        {
          "internalType": "uint256",
          "name": "amount",
          "type": "uint256"
        },
        {
          "internalType": "bool",
          "name": "released",
          "type": "bool"
        }
      ],
      "stateMutability": "view",
      "type": "function"
    },
    {
      "inputs": [],
      "name": "student",
      "outputs": [
        {
          "internalType": "address",
          "name": "",
          "type": "address"
        }
      ],
      "stateMutability": "view",
      "type": "function"
    },
    {
      "inputs": [],
      "name": "university",
      "outputs": [
        {
          "internalType": "address",
          "name": "",
          "type": "address"
        }
      ],
      "stateMutability": "view",
      "type": "function"
    },
    {
      "stateMutability": "payable",
      "type": "receive"
    }
  ],
  "bytecode": "0x60e060405260405162000c9038038062000c908339818101604052810190620000299190620003e7565b3373ffffffffffffffffffffffffffffffffffffffff1660808173ffffffffffffffffffffffffffffffffffffffff16815250508273ffffffffffffffffffffffffffffffffffffffff1660a08173ffffffffffffffffffffffffffffffffffffffff16815250508173ffffffffffffffffffffffffffffffffffffffff1660c08173ffffffffffffffffffffffffffffffffffffffff1681525050600080600090505b8251811015620001a65760006040518060400160405280858481518110620000fa57620000f962000462565b5b602002602001015181526020016000151581525090806001815401808255809150506001900390600052602060002090600202016000909190919091506000820151816000015560208201518160010160006101000a81548160ff021916908315150217905550505082818151811062000179576200017862000462565b5b6020026020010151826200018e9190620004c0565b915080806200019d90620004fb565b915050620000cd565b50803414620001b457600080fd5b5050505062000548565b6000604051905090565b600080fd5b600080fd5b600073ffffffffffffffffffffffffffffffffffffffff82169050919050565b6000620001ff82620001d2565b9050919050565b6200021181620001f2565b81146200021d57600080fd5b50565b600081519050620002318162000206565b92915050565b600080fd5b6000601f19601f8301169050919050565b7f4e487b7100000000000000000000000000000000000000000000000000000000600052604160045260246000fd5b62000287826200023c565b810181811067ffffffffffffffff82111715620002a957620002a86200024d565b5b80604052505050565b6000620002be620001be565b9050620002cc82826200027c565b919050565b600067ffffffffffffffff821115620002ef57620002ee6200024d565b5b602082029050602081019050919050565b600080fd5b6000819050919050565b6200031a8162000305565b81146200032657600080fd5b50565b6000815190506200033a816200030f565b92915050565b6000620003576200035184620002d1565b620002b2565b905080838252602082019050602084028301858111156200037d576200037c62000300565b5b835b81811015620003aa578062000395888262000329565b8452602084019350506020810190506200037f565b5050509392505050565b600082601f830112620003cc57620003cb62000237565b5b8151620003de84826020860162000340565b91505092915050565b600080600060608486031215620004035762000402620001c8565b5b6000620004138682870162000220565b9350506020620004268682870162000220565b925050604084015167ffffffffffffffff8111156200044a5762000449620001cd565b5b6200045886828701620003b4565b9150509250925092565b7f4e487b7100000000000000000000000000000000000000000000000000000000600052603260045260246000fd5b7f4e487b7100000000000000000000000000000000000000000000000000000000600052601160045260246000fd5b6000620004cd8262000305565b9150620004da8362000305565b9250828201905080821115620004f557620004f462000491565b5b92915050565b6000620005088262000305565b91507fffffffffffffffffffffffffffffffffffffffffffffffffffffffffffffffff82036200053d576200053c62000491565b5b600182019050919050565b60805160a05160c0516107116200057f6000396000610294015260008181610270015261033a0152600061024c01526107116000f3fe6080604052600436106100745760003560e01c8063699450e81161004e578063699450e814610101578063ae12894e1461012c578063c438b40f14610157578063e89e4ed6146101805761007b565b806312065fe014610080578063629e4ed0146100ab5780636904c94d146100d65761007b565b3661007b57005b600080fd5b34801561008c57600080fd5b506100956101be565b6040516100a2919061042f565b60405180910390f35b3480156100b757600080fd5b506100c06101c6565b6040516100cd9190610552565b60405180910390f35b3480156100e257600080fd5b506100eb61024a565b6040516100f891906105b5565b60405180910390f35b34801561010d57600080fd5b5061011661026e565b60405161012391906105b5565b60405180910390f35b34801561013857600080fd5b50610141610292565b60405161014e91906105b5565b60405180910390f35b34801561016357600080fd5b5061017e60048036038101906101799190610601565b6102b6565b005b34801561018c57600080fd5b506101a760048036038101906101a29190610601565b6103d5565b6040516101b592919061063d565b60405180910390f35b600047905090565b60606000805480602002602001604051908101604052809291908181526020016000905b828210156102415783829060005260206000209060020201604051806040016040529081600082015481526020016001820160009054906101000a900460ff161515151581525050815260200190600101906101ea565b50505050905090565b7f000000000000000000000000000000000000000000000000000000000000000081565b7f000000000000000000000000000000000000000000000000000000000000000081565b7f000000000000000000000000000000000000000000000000000000000000000081565b60008054905081106102c757600080fd5b60008082815481106102dc576102db610666565b5b906000526020600020906002020190508060010160009054906101000a900460ff161561030857600080fd5b806000015447101561031957600080fd5b60018160010160006101000a81548160ff02191690831515021790555060007f000000000000000000000000000000000000000000000000000000000000000073ffffffffffffffffffffffffffffffffffffffff168260000154604051610380906106c6565b60006040518083038185875af1925050503d80600081146103bd576040519150601f19603f3d011682016040523d82523d6000602084013e6103c2565b606091505b50509050806103d057600080fd5b505050565b600081815481106103e557600080fd5b90600052602060002090600202016000915090508060000154908060010160009054906101000a900460ff16905082565b6000819050919050565b61042981610416565b82525050565b60006020820190506104446000830184610420565b92915050565b600081519050919050565b600082825260208201905092915050565b6000819050602082019050919050565b61047f81610416565b82525050565b60008115159050919050565b61049a81610485565b82525050565b6040820160008201516104b66000850182610476565b5060208201516104c96020850182610491565b50505050565b60006104db83836104a0565b60408301905092915050565b6000602082019050919050565b60006104ff8261044a565b6105098185610455565b935061051483610466565b8060005b8381101561054557815161052c88826104cf565b9750610537836104e7565b925050600181019050610518565b5085935050505092915050565b6000602082019050818103600083015261056c81846104f4565b905092915050565b600073ffffffffffffffffffffffffffffffffffffffff82169050919050565b600061059f82610574565b9050919050565b6105af81610594565b82525050565b60006020820190506105ca60008301846105a6565b92915050565b600080fd5b6105de81610416565b81146105e957600080fd5b50565b6000813590506105fb816105d5565b92915050565b600060208284031215610617576106166105d0565b5b6000610625848285016105ec565b91505092915050565b61063781610485565b82525050565b60006040820190506106526000830185610420565b61065f602083018461062e565b9392505050565b7f4e487b7100000000000000000000000000000000000000000000000000000000600052603260045260246000fd5b600081905092915050565b50565b60006106b0600083610695565b91506106bb826106a0565b600082019050919050565b60006106d1826106a3565b915081905091905056fea2646970667358221220ce4ab01c4b0480c28181fa46bc1e1217d9622b125c449aaae8398717da5c747264736f6c63430008140033",
  "linkReferences": {},
  "deployedLinkReferences": {}
}